{
  "contractName": "Guestbook",
  "abi": [
    {
      "anonymous": false,
      "inputs": [
        {
          "indexed": false,
          "internalType": "string",
          "name": "message",
          "type": "string"
        },
        {
          "indexed": false,
          "internalType": "bytes32",
          "name": "name",
          "type": "bytes32"
        }
      ],
      "name": "SignatureAdded",
      "type": "event"
    },
    {
      "constant": false,
      "inputs": [
        {
          "internalType": "bytes32",
          "name": "name",
          "type": "bytes32"
        }
      ],
      "name": "signBook",
      "outputs": [],
      "payable": false,
      "stateMutability": "nonpayable",
      "type": "function"
    },
    {
      "constant": false,
      "inputs": [
        {
          "internalType": "uint256",
          "name": "_index",
          "type": "uint256"
        },
        {
          "internalType": "bytes32",
          "name": "_name",
          "type": "bytes32"
        }
      ],
      "name": "editNames",
      "outputs": [],
      "payable": false,
      "stateMutability": "nonpayable",
      "type": "function"
    },
    {
      "constant": true,
      "inputs": [],
      "name": "getNames",
      "outputs": [
        {
          "internalType": "bytes32[]",
          "name": "",
          "type": "bytes32[]"
        }
      ],
      "payable": false,
      "stateMutability": "view",
      "type": "function"
    }
  ],
  "bytecode": "0x608060405234801561001057600080fd5b50610257806100206000396000f3fe608060405234801561001057600080fd5b50600436106100415760003560e01c8063041be4f81461004657806352acf2d714610074578063cd838f0f146100ac575b600080fd5b6100726004803603602081101561005c57600080fd5b810190808035906020019092919050505061010b565b005b6100aa6004803603604081101561008a57600080fd5b8101908080359060200190929190803590602001909291905050506101aa565b005b6100b46101ca565b6040518080602001828103825283818151815260200191508051906020019060200280838360005b838110156100f75780820151818401526020810190506100dc565b505050509050019250505060405180910390f35b60008190806001815401808255809150509060018203906000526020600020016000909192909190915055507f52459aff3b9a588e65d060c0affd7121b01e01e17dfcc75e0050b9035822e319816040518080602001838152602001828103825260148152602001807f4e6577206775657374207369676e6174757265210000000000000000000000008152506020019250505060405180910390a150565b80600083815481106101b857fe5b90600052602060002001819055505050565b6060600080548060200260200160405190810160405280929190818152602001828054801561021857602002820191906000526020600020905b815481526020019060010190808311610204575b505050505090509056fea265627a7a72315820edbec3127bb62a4be08f658149db95df4a230dfa3d4a74a18826a085f8b2775864736f6c634300050c0032",
  "source": "pragma solidity >=0.4.21 <0.6.0;\r\n\r\ncontract Guestbook {\r\n  event SignatureAdded(string message, bytes32 name);\r\n  bytes32[] guests;\r\n  function signBook(bytes32 name) public {\r\n    guests.push(name);\r\n    emit SignatureAdded(\"New guest signature!\", name);\r\n  }\r\n  function editNames(uint256 _index, bytes32 _name) public {\r\n    guests[_index] = _name;\r\n  }\r\n\r\n  function getNames() public view returns (bytes32[] memory) {\r\n    return guests;\r\n  }\r\n}",
  "sourcePath": "C:/Users/BE/guestbook/contracts/Guestbook.sol",
  "compiler": {
    "name": "solc",
    "version": "0.5.12+commit.7709ece9.Emscripten.clang"
  },
  "schemaVersion": "3.0.20",
  "updatedAt": "2020-01-27T08:30:17.784Z",
  "networkType": "ethereum",
  "devdoc": {
    "methods": {}
  },
  "userdoc": {
    "methods": {}
  }
}